{
  "abi": [
    {
      "inputs": [
        {
          "internalType": "contract VaultManager",
          "name": "_vaultManager",
          "type": "address"
        },
        {
          "internalType": "contract IWETH",
          "name": "_weth",
          "type": "address"
        }
      ],
      "stateMutability": "nonpayable",
      "type": "constructor"
    },
    {
      "anonymous": false,
      "inputs": [
        {
          "indexed": true,
          "internalType": "address",
          "name": "user",
          "type": "address"
        },
        {
          "indexed": true,
          "internalType": "address",
          "name": "newOwner",
          "type": "address"
        }
      ],
      "name": "OwnershipTransferred",
      "type": "event"
    },
    {
      "inputs": [
        {
          "internalType": "uint256",
          "name": "id",
          "type": "uint256"
        },
        {
          "internalType": "address",
          "name": "vault",
          "type": "address"
        }
      ],
      "name": "depositETHWithFee",
      "outputs": [],
      "stateMutability": "payable",
      "type": "function"
    },
    {
      "inputs": [
        {
          "internalType": "uint256",
          "name": "id",
          "type": "uint256"
        },
        {
          "internalType": "address",
          "name": "vault",
          "type": "address"
        },
        {
          "internalType": "uint256",
          "name": "amount",
          "type": "uint256"
        }
      ],
      "name": "depositWithFee",
      "outputs": [],
      "stateMutability": "nonpayable",
      "type": "function"
    },
    {
      "inputs": [],
      "name": "fee",
      "outputs": [
        {
          "internalType": "uint256",
          "name": "",
          "type": "uint256"
        }
      ],
      "stateMutability": "view",
      "type": "function"
    },
    {
      "inputs": [],
      "name": "feeRecipient",
      "outputs": [
        {
          "internalType": "address",
          "name": "",
          "type": "address"
        }
      ],
      "stateMutability": "view",
      "type": "function"
    },
    {
      "inputs": [],
      "name": "owner",
      "outputs": [
        {
          "internalType": "address",
          "name": "",
          "type": "address"
        }
      ],
      "stateMutability": "view",
      "type": "function"
    },
    {
      "inputs": [
        {
          "internalType": "uint256",
          "name": "_fee",
          "type": "uint256"
        }
      ],
      "name": "setFee",
      "outputs": [],
      "stateMutability": "nonpayable",
      "type": "function"
    },
    {
      "inputs": [
        {
          "internalType": "address",
          "name": "_feeRecipient",
          "type": "address"
        }
      ],
      "name": "setFeeRecipient",
      "outputs": [],
      "stateMutability": "nonpayable",
      "type": "function"
    },
    {
      "inputs": [
        {
          "internalType": "address",
          "name": "newOwner",
          "type": "address"
        }
      ],
      "name": "transferOwnership",
      "outputs": [],
      "stateMutability": "nonpayable",
      "type": "function"
    },
    {
      "inputs": [],
      "name": "vaultManager",
      "outputs": [
        {
          "internalType": "contract VaultManager",
          "name": "",
          "type": "address"
        }
      ],
      "stateMutability": "view",
      "type": "function"
    },
    {
      "inputs": [],
      "name": "weth",
      "outputs": [
        {
          "internalType": "contract IWETH",
          "name": "",
          "type": "address"
        }
      ],
      "stateMutability": "view",
      "type": "function"
    }
  ],
  "bytecode": {
    "object": "0x60c060405234801561001057600080fd5b50604051610c6e380380610c6e83398101604081905261002f9161009f565b600080546001600160a01b031916339081178255604051909182917f8be0079c531659141344cd1fd0a4f28419497f9722a3daafe3b4186f6b6457e0908290a3506001600160a01b039182166080521660a0526100d9565b6001600160a01b038116811461009c57600080fd5b50565b600080604083850312156100b257600080fd5b82516100bd81610087565b60208401519092506100ce81610087565b809150509250929050565b60805160a051610b5c6101126000396000818160c801526103030152600081816101a801528181610798015261086c0152610b5c6000f3fe6080604052600436106100b15760003560e01c80638a4adf2411610069578063ddca3f431161004e578063ddca3f43146101f7578063e74b981b1461021b578063f2fde38b1461023b57600080fd5b80638a4adf24146101965780638da5cb5b146101ca57600080fd5b8063469048401161009a57806346904840146101365780634732d7e31461016357806369fe0e2d1461017657600080fd5b80633fc8cef3146100b657806341ae74e614610114575b600080fd5b3480156100c257600080fd5b506100ea7f000000000000000000000000000000000000000000000000000000000000000081565b60405173ffffffffffffffffffffffffffffffffffffffff90911681526020015b60405180910390f35b34801561012057600080fd5b5061013461012f366004610a08565b61025b565b005b34801561014257600080fd5b506002546100ea9073ffffffffffffffffffffffffffffffffffffffff1681565b610134610171366004610a40565b610301565b34801561018257600080fd5b50610134610191366004610a70565b610391565b3480156101a257600080fd5b506100ea7f000000000000000000000000000000000000000000000000000000000000000081565b3480156101d657600080fd5b506000546100ea9073ffffffffffffffffffffffffffffffffffffffff1681565b34801561020357600080fd5b5061020d60015481565b60405190815260200161010b565b34801561022757600080fd5b50610134610236366004610a89565b61041c565b34801561024757600080fd5b50610134610256366004610a89565b6104e4565b60008273ffffffffffffffffffffffffffffffffffffffff166338d52e0f6040518163ffffffff1660e01b8152600401602060405180830381865afa1580156102a8573d6000803e3d6000fd5b505050506040513d601f19601f820116820180604052508101906102cc9190610aad565b90506102f073ffffffffffffffffffffffffffffffffffffffff82163330856105d5565b6102fb84848461069b565b50505050565b7f000000000000000000000000000000000000000000000000000000000000000073ffffffffffffffffffffffffffffffffffffffff1663d0e30db0346040518263ffffffff1660e01b81526004016000604051808303818588803b15801561036957600080fd5b505af115801561037d573d6000803e3d6000fd5b505050505061038d82823461069b565b5050565b60005473ffffffffffffffffffffffffffffffffffffffff163314610417576040517f08c379a000000000000000000000000000000000000000000000000000000000815260206004820152600c60248201527f554e415554484f52495a4544000000000000000000000000000000000000000060448201526064015b60405180910390fd5b600155565b60005473ffffffffffffffffffffffffffffffffffffffff16331461049d576040517f08c379a000000000000000000000000000000000000000000000000000000000815260206004820152600c60248201527f554e415554484f52495a45440000000000000000000000000000000000000000604482015260640161040e565b600280547fffffffffffffffffffffffff00000000000000000000000000000000000000001673ffffffffffffffffffffffffffffffffffffffff92909216919091179055565b60005473ffffffffffffffffffffffffffffffffffffffff163314610565576040517f08c379a000000000000000000000000000000000000000000000000000000000815260206004820152600c60248201527f554e415554484f52495a45440000000000000000000000000000000000000000604482015260640161040e565b600080547fffffffffffffffffffffffff00000000000000000000000000000000000000001673ffffffffffffffffffffffffffffffffffffffff83169081178255604051909133917f8be0079c531659141344cd1fd0a4f28419497f9722a3daafe3b4186f6b6457e09190a350565b60006040517f23b872dd0000000000000000000000000000000000000000000000000000000081528460048201528360248201528260448201526020600060648360008a5af13d15601f3d1160016000511416171691505080610694576040517f08c379a000000000000000000000000000000000000000000000000000000000815260206004820152601460248201527f5452414e534645525f46524f4d5f4641494c4544000000000000000000000000604482015260640161040e565b5050505050565b60008273ffffffffffffffffffffffffffffffffffffffff166338d52e0f6040518163ffffffff1660e01b8152600401602060405180830381865afa1580156106e8573d6000803e3d6000fd5b505050506040513d601f19601f8201168201806040525081019061070c9190610aad565b90506000610725600154846108d090919063ffffffff16565b60025490915061074f9073ffffffffffffffffffffffffffffffffffffffff8481169116836108ee565b600061075b8285610aca565b6040517f095ea7b300000000000000000000000000000000000000000000000000000000815273ffffffffffffffffffffffffffffffffffffffff7f000000000000000000000000000000000000000000000000000000000000000081166004830152602482018390529192509084169063095ea7b3906044016020604051808303816000875af11580156107f4573d6000803e3d6000fd5b505050506040513d601f19601f820116820180604052508101906108189190610b04565b506040517fbc157ac10000000000000000000000000000000000000000000000000000000081526004810187905273ffffffffffffffffffffffffffffffffffffffff8681166024830152604482018390527f0000000000000000000000000000000000000000000000000000000000000000169063bc157ac190606401600060405180830381600087803b1580156108b057600080fd5b505af11580156108c4573d6000803e3d6000fd5b50505050505050505050565b60006108e58383670de0b6b3a76400006109a7565b90505b92915050565b60006040517fa9059cbb000000000000000000000000000000000000000000000000000000008152836004820152826024820152602060006044836000895af13d15601f3d11600160005114161716915050806102fb576040517f08c379a000000000000000000000000000000000000000000000000000000000815260206004820152600f60248201527f5452414e534645525f4641494c45440000000000000000000000000000000000604482015260640161040e565b6000827fffffffffffffffffffffffffffffffffffffffffffffffffffffffffffffffff04841183021582026109dc57600080fd5b5091020490565b73ffffffffffffffffffffffffffffffffffffffff81168114610a0557600080fd5b50565b600080600060608486031215610a1d57600080fd5b833592506020840135610a2f816109e3565b929592945050506040919091013590565b60008060408385031215610a5357600080fd5b823591506020830135610a65816109e3565b809150509250929050565b600060208284031215610a8257600080fd5b5035919050565b600060208284031215610a9b57600080fd5b8135610aa6816109e3565b9392505050565b600060208284031215610abf57600080fd5b8151610aa6816109e3565b818103818111156108e8577f4e487b7100000000000000000000000000000000000000000000000000000000600052601160045260246000fd5b600060208284031215610b1657600080fd5b81518015158114610aa657600080fdfea26469706673582212204ab0791b44dbeb23cb49d907645e33e83653c0f58169d766fc6ef17f3ddf0f0564736f6c63430008110033",
    "linkReferences": {}
  },
  "methodIdentifiers": {
    "depositETHWithFee(uint256,address)": "4732d7e3",
    "depositWithFee(uint256,address,uint256)": "41ae74e6",
    "fee()": "ddca3f43",
    "feeRecipient()": "46904840",
    "owner()": "8da5cb5b",
    "setFee(uint256)": "69fe0e2d",
    "setFeeRecipient(address)": "e74b981b",
    "transferOwnership(address)": "f2fde38b",
    "vaultManager()": "8a4adf24",
    "weth()": "3fc8cef3"
  },
  "id": 49
}