{
  "abi": [
    {
      "inputs": [
        {
          "internalType": "contract VaultManager",
          "name": "_vaultManager",
          "type": "address"
        }
      ],
      "stateMutability": "nonpayable",
      "type": "constructor"
    },
    {
      "anonymous": false,
      "inputs": [
        {
          "indexed": true,
          "internalType": "address",
          "name": "user",
          "type": "address"
        },
        {
          "indexed": true,
          "internalType": "address",
          "name": "newOwner",
          "type": "address"
        }
      ],
      "name": "OwnershipTransferred",
      "type": "event"
    },
    {
      "inputs": [
        {
          "internalType": "uint256",
          "name": "id",
          "type": "uint256"
        },
        {
          "internalType": "address",
          "name": "vault",
          "type": "address"
        },
        {
          "internalType": "uint256",
          "name": "amount",
          "type": "uint256"
        }
      ],
      "name": "deposit",
      "outputs": [],
      "stateMutability": "nonpayable",
      "type": "function"
    },
    {
      "inputs": [],
      "name": "fee",
      "outputs": [
        {
          "internalType": "uint256",
          "name": "",
          "type": "uint256"
        }
      ],
      "stateMutability": "view",
      "type": "function"
    },
    {
      "inputs": [],
      "name": "feeRecipient",
      "outputs": [
        {
          "internalType": "address",
          "name": "",
          "type": "address"
        }
      ],
      "stateMutability": "view",
      "type": "function"
    },
    {
      "inputs": [],
      "name": "owner",
      "outputs": [
        {
          "internalType": "address",
          "name": "",
          "type": "address"
        }
      ],
      "stateMutability": "view",
      "type": "function"
    },
    {
      "inputs": [
        {
          "internalType": "uint256",
          "name": "_fee",
          "type": "uint256"
        }
      ],
      "name": "setFee",
      "outputs": [],
      "stateMutability": "nonpayable",
      "type": "function"
    },
    {
      "inputs": [
        {
          "internalType": "address",
          "name": "_feeRecipient",
          "type": "address"
        }
      ],
      "name": "setFeeRecipient",
      "outputs": [],
      "stateMutability": "nonpayable",
      "type": "function"
    },
    {
      "inputs": [
        {
          "internalType": "address",
          "name": "newOwner",
          "type": "address"
        }
      ],
      "name": "transferOwnership",
      "outputs": [],
      "stateMutability": "nonpayable",
      "type": "function"
    },
    {
      "inputs": [],
      "name": "vaultManager",
      "outputs": [
        {
          "internalType": "contract VaultManager",
          "name": "",
          "type": "address"
        }
      ],
      "stateMutability": "view",
      "type": "function"
    }
  ],
  "bytecode": {
    "object": "0x60a060405234801561001057600080fd5b50604051610a1f380380610a1f83398101604081905261002f91610081565b600080546001600160a01b031916339081178255604051909182917f8be0079c531659141344cd1fd0a4f28419497f9722a3daafe3b4186f6b6457e0908290a3506001600160a01b03166080526100b1565b60006020828403121561009357600080fd5b81516001600160a01b03811681146100aa57600080fd5b9392505050565b6080516109466100d96000396000818160f10152818161032d015261040101526109466000f3fe608060405234801561001057600080fd5b50600436106100885760003560e01c8063bc157ac11161005b578063bc157ac114610133578063ddca3f4314610146578063e74b981b1461015d578063f2fde38b1461017057600080fd5b8063469048401461008d57806369fe0e2d146100d75780638a4adf24146100ec5780638da5cb5b14610113575b600080fd5b6002546100ad9073ffffffffffffffffffffffffffffffffffffffff1681565b60405173ffffffffffffffffffffffffffffffffffffffff90911681526020015b60405180910390f35b6100ea6100e53660046107fd565b610183565b005b6100ad7f000000000000000000000000000000000000000000000000000000000000000081565b6000546100ad9073ffffffffffffffffffffffffffffffffffffffff1681565b6100ea61014136600461083b565b61020e565b61014f60015481565b6040519081526020016100ce565b6100ea61016b366004610873565b610465565b6100ea61017e366004610873565b61052d565b60005473ffffffffffffffffffffffffffffffffffffffff163314610209576040517f08c379a000000000000000000000000000000000000000000000000000000000815260206004820152600c60248201527f554e415554484f52495a4544000000000000000000000000000000000000000060448201526064015b60405180910390fd5b600155565b60008273ffffffffffffffffffffffffffffffffffffffff166338d52e0f6040518163ffffffff1660e01b8152600401602060405180830381865afa15801561025b573d6000803e3d6000fd5b505050506040513d601f19601f8201168201806040525081019061027f9190610897565b90506102a373ffffffffffffffffffffffffffffffffffffffff821633308561061e565b60006102ba600154846106e490919063ffffffff16565b6002549091506102e49073ffffffffffffffffffffffffffffffffffffffff848116911683610702565b60006102f082856108b4565b6040517f095ea7b300000000000000000000000000000000000000000000000000000000815273ffffffffffffffffffffffffffffffffffffffff7f000000000000000000000000000000000000000000000000000000000000000081166004830152602482018390529192509084169063095ea7b3906044016020604051808303816000875af1158015610389573d6000803e3d6000fd5b505050506040513d601f19601f820116820180604052508101906103ad91906108ee565b506040517fbc157ac10000000000000000000000000000000000000000000000000000000081526004810187905273ffffffffffffffffffffffffffffffffffffffff8681166024830152604482018390527f0000000000000000000000000000000000000000000000000000000000000000169063bc157ac190606401600060405180830381600087803b15801561044557600080fd5b505af1158015610459573d6000803e3d6000fd5b50505050505050505050565b60005473ffffffffffffffffffffffffffffffffffffffff1633146104e6576040517f08c379a000000000000000000000000000000000000000000000000000000000815260206004820152600c60248201527f554e415554484f52495a454400000000000000000000000000000000000000006044820152606401610200565b600280547fffffffffffffffffffffffff00000000000000000000000000000000000000001673ffffffffffffffffffffffffffffffffffffffff92909216919091179055565b60005473ffffffffffffffffffffffffffffffffffffffff1633146105ae576040517f08c379a000000000000000000000000000000000000000000000000000000000815260206004820152600c60248201527f554e415554484f52495a454400000000000000000000000000000000000000006044820152606401610200565b600080547fffffffffffffffffffffffff00000000000000000000000000000000000000001673ffffffffffffffffffffffffffffffffffffffff83169081178255604051909133917f8be0079c531659141344cd1fd0a4f28419497f9722a3daafe3b4186f6b6457e09190a350565b60006040517f23b872dd0000000000000000000000000000000000000000000000000000000081528460048201528360248201528260448201526020600060648360008a5af13d15601f3d11600160005114161716915050806106dd576040517f08c379a000000000000000000000000000000000000000000000000000000000815260206004820152601460248201527f5452414e534645525f46524f4d5f4641494c45440000000000000000000000006044820152606401610200565b5050505050565b60006106f98383670de0b6b3a76400006107c1565b90505b92915050565b60006040517fa9059cbb000000000000000000000000000000000000000000000000000000008152836004820152826024820152602060006044836000895af13d15601f3d11600160005114161716915050806107bb576040517f08c379a000000000000000000000000000000000000000000000000000000000815260206004820152600f60248201527f5452414e534645525f4641494c454400000000000000000000000000000000006044820152606401610200565b50505050565b6000827fffffffffffffffffffffffffffffffffffffffffffffffffffffffffffffffff04841183021582026107f657600080fd5b5091020490565b60006020828403121561080f57600080fd5b5035919050565b73ffffffffffffffffffffffffffffffffffffffff8116811461083857600080fd5b50565b60008060006060848603121561085057600080fd5b83359250602084013561086281610816565b929592945050506040919091013590565b60006020828403121561088557600080fd5b813561089081610816565b9392505050565b6000602082840312156108a957600080fd5b815161089081610816565b818103818111156106fc577f4e487b7100000000000000000000000000000000000000000000000000000000600052601160045260246000fd5b60006020828403121561090057600080fd5b8151801515811461089057600080fdfea264697066735822122066f2a34df22f4f8acd16375017fd8e541f8f10959a52ffe493ae38b2955f800b64736f6c63430008110033",
    "linkReferences": {}
  },
  "methodIdentifiers": {
    "deposit(uint256,address,uint256)": "bc157ac1",
    "fee()": "ddca3f43",
    "feeRecipient()": "46904840",
    "owner()": "8da5cb5b",
    "setFee(uint256)": "69fe0e2d",
    "setFeeRecipient(address)": "e74b981b",
    "transferOwnership(address)": "f2fde38b",
    "vaultManager()": "8a4adf24"
  },
  "id": 48
}