{
  "abi": [
    {
      "inputs": [
        {
          "internalType": "contract DNft",
          "name": "_dNft",
          "type": "address"
        },
        {
          "internalType": "contract Dyad",
          "name": "_dyad",
          "type": "address"
        },
        {
          "internalType": "contract Licenser",
          "name": "_licenser",
          "type": "address"
        }
      ],
      "stateMutability": "nonpayable",
      "type": "constructor"
    },
    {
      "inputs": [],
      "name": "CrTooHigh",
      "type": "error"
    },
    {
      "inputs": [],
      "name": "CrTooLow",
      "type": "error"
    },
    {
      "inputs": [],
      "name": "InvalidDNft",
      "type": "error"
    },
    {
      "inputs": [],
      "name": "NotDNftVault",
      "type": "error"
    },
    {
      "inputs": [],
      "name": "NotLicensed",
      "type": "error"
    },
    {
      "inputs": [],
      "name": "NotOwner",
      "type": "error"
    },
    {
      "inputs": [],
      "name": "OnlyOwner",
      "type": "error"
    },
    {
      "inputs": [],
      "name": "TooManyVaults",
      "type": "error"
    },
    {
      "inputs": [],
      "name": "VaultAlreadyAdded",
      "type": "error"
    },
    {
      "inputs": [],
      "name": "VaultHasAssets",
      "type": "error"
    },
    {
      "inputs": [],
      "name": "VaultNotAdded",
      "type": "error"
    },
    {
      "inputs": [],
      "name": "VaultNotLicensed",
      "type": "error"
    },
    {
      "anonymous": false,
      "inputs": [
        {
          "indexed": true,
          "internalType": "uint256",
          "name": "id",
          "type": "uint256"
        },
        {
          "indexed": true,
          "internalType": "address",
          "name": "vault",
          "type": "address"
        }
      ],
      "name": "Added",
      "type": "event"
    },
    {
      "anonymous": false,
      "inputs": [
        {
          "indexed": true,
          "internalType": "uint256",
          "name": "id",
          "type": "uint256"
        },
        {
          "indexed": false,
          "internalType": "uint256",
          "name": "amount",
          "type": "uint256"
        },
        {
          "indexed": true,
          "internalType": "address",
          "name": "from",
          "type": "address"
        }
      ],
      "name": "BurnDyad",
      "type": "event"
    },
    {
      "anonymous": false,
      "inputs": [
        {
          "indexed": true,
          "internalType": "uint256",
          "name": "id",
          "type": "uint256"
        },
        {
          "indexed": true,
          "internalType": "address",
          "name": "from",
          "type": "address"
        },
        {
          "indexed": true,
          "internalType": "uint256",
          "name": "to",
          "type": "uint256"
        }
      ],
      "name": "Liquidate",
      "type": "event"
    },
    {
      "anonymous": false,
      "inputs": [
        {
          "indexed": true,
          "internalType": "uint256",
          "name": "id",
          "type": "uint256"
        },
        {
          "indexed": false,
          "internalType": "uint256",
          "name": "amount",
          "type": "uint256"
        },
        {
          "indexed": true,
          "internalType": "address",
          "name": "to",
          "type": "address"
        }
      ],
      "name": "MintDyad",
      "type": "event"
    },
    {
      "anonymous": false,
      "inputs": [
        {
          "indexed": true,
          "internalType": "uint256",
          "name": "id",
          "type": "uint256"
        },
        {
          "indexed": true,
          "internalType": "address",
          "name": "vault",
          "type": "address"
        },
        {
          "indexed": false,
          "internalType": "uint256",
          "name": "amount",
          "type": "uint256"
        },
        {
          "indexed": true,
          "internalType": "address",
          "name": "to",
          "type": "address"
        }
      ],
      "name": "RedeemDyad",
      "type": "event"
    },
    {
      "anonymous": false,
      "inputs": [
        {
          "indexed": true,
          "internalType": "uint256",
          "name": "id",
          "type": "uint256"
        },
        {
          "indexed": true,
          "internalType": "address",
          "name": "vault",
          "type": "address"
        }
      ],
      "name": "Removed",
      "type": "event"
    },
    {
      "inputs": [],
      "name": "LIQUIDATION_REWARD",
      "outputs": [
        {
          "internalType": "uint256",
          "name": "",
          "type": "uint256"
        }
      ],
      "stateMutability": "view",
      "type": "function"
    },
    {
      "inputs": [],
      "name": "MAX_VAULTS",
      "outputs": [
        {
          "internalType": "uint256",
          "name": "",
          "type": "uint256"
        }
      ],
      "stateMutability": "view",
      "type": "function"
    },
    {
      "inputs": [],
      "name": "MIN_COLLATERIZATION_RATIO",
      "outputs": [
        {
          "internalType": "uint256",
          "name": "",
          "type": "uint256"
        }
      ],
      "stateMutability": "view",
      "type": "function"
    },
    {
      "inputs": [
        {
          "internalType": "uint256",
          "name": "id",
          "type": "uint256"
        },
        {
          "internalType": "address",
          "name": "vault",
          "type": "address"
        }
      ],
      "name": "add",
      "outputs": [],
      "stateMutability": "nonpayable",
      "type": "function"
    },
    {
      "inputs": [
        {
          "internalType": "uint256",
          "name": "id",
          "type": "uint256"
        },
        {
          "internalType": "uint256",
          "name": "amount",
          "type": "uint256"
        }
      ],
      "name": "burnDyad",
      "outputs": [],
      "stateMutability": "nonpayable",
      "type": "function"
    },
    {
      "inputs": [
        {
          "internalType": "uint256",
          "name": "id",
          "type": "uint256"
        }
      ],
      "name": "collatRatio",
      "outputs": [
        {
          "internalType": "uint256",
          "name": "",
          "type": "uint256"
        }
      ],
      "stateMutability": "view",
      "type": "function"
    },
    {
      "inputs": [],
      "name": "dNft",
      "outputs": [
        {
          "internalType": "contract DNft",
          "name": "",
          "type": "address"
        }
      ],
      "stateMutability": "view",
      "type": "function"
    },
    {
      "inputs": [
        {
          "internalType": "uint256",
          "name": "id",
          "type": "uint256"
        },
        {
          "internalType": "address",
          "name": "vault",
          "type": "address"
        },
        {
          "internalType": "uint256",
          "name": "amount",
          "type": "uint256"
        }
      ],
      "name": "deposit",
      "outputs": [],
      "stateMutability": "nonpayable",
      "type": "function"
    },
    {
      "inputs": [],
      "name": "dyad",
      "outputs": [
        {
          "internalType": "contract Dyad",
          "name": "",
          "type": "address"
        }
      ],
      "stateMutability": "view",
      "type": "function"
    },
    {
      "inputs": [
        {
          "internalType": "uint256",
          "name": "id",
          "type": "uint256"
        }
      ],
      "name": "getTotalUsdValue",
      "outputs": [
        {
          "internalType": "uint256",
          "name": "",
          "type": "uint256"
        }
      ],
      "stateMutability": "view",
      "type": "function"
    },
    {
      "inputs": [
        {
          "internalType": "uint256",
          "name": "id",
          "type": "uint256"
        }
      ],
      "name": "getVaults",
      "outputs": [
        {
          "internalType": "address[]",
          "name": "",
          "type": "address[]"
        }
      ],
      "stateMutability": "view",
      "type": "function"
    },
    {
      "inputs": [
        {
          "internalType": "uint256",
          "name": "id",
          "type": "uint256"
        },
        {
          "internalType": "uint256",
          "name": "to",
          "type": "uint256"
        }
      ],
      "name": "liquidate",
      "outputs": [],
      "stateMutability": "nonpayable",
      "type": "function"
    },
    {
      "inputs": [
        {
          "internalType": "uint256",
          "name": "id",
          "type": "uint256"
        },
        {
          "internalType": "uint256",
          "name": "amount",
          "type": "uint256"
        },
        {
          "internalType": "address",
          "name": "to",
          "type": "address"
        }
      ],
      "name": "mintDyad",
      "outputs": [],
      "stateMutability": "nonpayable",
      "type": "function"
    },
    {
      "inputs": [
        {
          "internalType": "uint256",
          "name": "id",
          "type": "uint256"
        },
        {
          "internalType": "address",
          "name": "vault",
          "type": "address"
        },
        {
          "internalType": "uint256",
          "name": "amount",
          "type": "uint256"
        },
        {
          "internalType": "address",
          "name": "to",
          "type": "address"
        }
      ],
      "name": "redeemDyad",
      "outputs": [
        {
          "internalType": "uint256",
          "name": "",
          "type": "uint256"
        }
      ],
      "stateMutability": "nonpayable",
      "type": "function"
    },
    {
      "inputs": [
        {
          "internalType": "uint256",
          "name": "id",
          "type": "uint256"
        },
        {
          "internalType": "address",
          "name": "vault",
          "type": "address"
        }
      ],
      "name": "remove",
      "outputs": [],
      "stateMutability": "nonpayable",
      "type": "function"
    },
    {
      "inputs": [],
      "name": "vaultLicenser",
      "outputs": [
        {
          "internalType": "contract Licenser",
          "name": "",
          "type": "address"
        }
      ],
      "stateMutability": "view",
      "type": "function"
    },
    {
      "inputs": [
        {
          "internalType": "uint256",
          "name": "id",
          "type": "uint256"
        },
        {
          "internalType": "address",
          "name": "vault",
          "type": "address"
        },
        {
          "internalType": "uint256",
          "name": "amount",
          "type": "uint256"
        },
        {
          "internalType": "address",
          "name": "to",
          "type": "address"
        }
      ],
      "name": "withdraw",
      "outputs": [],
      "stateMutability": "nonpayable",
      "type": "function"
    }
  ],
  "bytecode": {
    "object": "0x60e06040523480156200001157600080fd5b506040516200263d3803806200263d83398101604081905262000034916200006b565b6001600160a01b0392831660805290821660a0521660c052620000bf565b6001600160a01b03811681146200006857600080fd5b50565b6000806000606084860312156200008157600080fd5b83516200008e8162000052565b6020850151909350620000a18162000052565b6040850151909250620000b48162000052565b809150509250925092565b60805160a05160c0516124de6200015f60003960008181610176015281816106530152611b3f01526000818161025d01528181610410015281816109d901528181610e2f0152818161140d01526117a40152600081816101250152818161031c01528181610505015281816107f201528181610ad801528181610d3b015281816110dc0152818161130201528181611553015261165401526124de6000f3fe608060405234801561001057600080fd5b506004361061011b5760003560e01c80639dfa4e94116100b2578063b6eaea1711610081578063ccf2e88611610066578063ccf2e8861461029a578063d296d1f1146102ad578063d4687b69146102c057600080fd5b8063b6eaea171461027f578063bc157ac11461028757600080fd5b80639dfa4e94146102235780639f0784ba14610236578063ad0d759414610249578063add95a511461025857600080fd5b806335f2faf0116100ee57806335f2faf0146101c0578063468d16d0146101dd5780635f0f48bd146101fd5780639c110fe11461021057600080fd5b80630f5eea9114610120578063136616991461017157806316ae57a3146101985780632b8bbbe8146101ad575b600080fd5b6101477f000000000000000000000000000000000000000000000000000000000000000081565b60405173ffffffffffffffffffffffffffffffffffffffff90911681526020015b60405180910390f35b6101477f000000000000000000000000000000000000000000000000000000000000000081565b6101ab6101a636600461201c565b6102d3565b005b6101ab6101bb366004612063565b6104bd565b6101cf6714d1120d7b16000081565b604051908152602001610168565b6101f06101eb366004612093565b61078a565b60405161016891906120ac565b6101ab61020b366004612106565b6107aa565b6101cf61021e366004612093565b61098a565b6101ab610231366004612063565b610a90565b6101cf610244366004612106565b610cf0565b6101cf670b1a2bc2ec50000081565b6101477f000000000000000000000000000000000000000000000000000000000000000081565b6101cf600581565b6101ab610295366004612150565b611093565b6101ab6102a8366004612188565b6112ba565b6101ab6102bb36600461201c565b61150a565b6101cf6102ce366004612093565b611ab4565b6040517f6352211e00000000000000000000000000000000000000000000000000000000815260048101839052829060009073ffffffffffffffffffffffffffffffffffffffff7f00000000000000000000000000000000000000000000000000000000000000001690636352211e90602401602060405180830381865afa158015610363573d6000803e3d6000fd5b505050506040513d601f19601f8201168201806040525081019061038791906121c1565b73ffffffffffffffffffffffffffffffffffffffff16036103d4576040517f956c01f200000000000000000000000000000000000000000000000000000000815260040160405180910390fd5b6040517f9eea5f6600000000000000000000000000000000000000000000000000000000815260048101849052336024820152604481018390527f000000000000000000000000000000000000000000000000000000000000000073ffffffffffffffffffffffffffffffffffffffff1690639eea5f6690606401600060405180830381600087803b15801561046957600080fd5b505af115801561047d573d6000803e3d6000fd5b50506040518481523392508591507f0c3afe79693a0a8b287c7976e65c25875b65e90c75f5f3679c491cf27b7c1ab29060200160405180910390a3505050565b6040517f6352211e000000000000000000000000000000000000000000000000000000008152600481018390528290339073ffffffffffffffffffffffffffffffffffffffff7f00000000000000000000000000000000000000000000000000000000000000001690636352211e90602401602060405180830381865afa15801561054c573d6000803e3d6000fd5b505050506040513d601f19601f8201168201806040525081019061057091906121c1565b73ffffffffffffffffffffffffffffffffffffffff16146105bd576040517f30cd747100000000000000000000000000000000000000000000000000000000815260040160405180910390fd5b60008381526020819052604090206005906105d790611c6b565b1061060e576040517f0c93121000000000000000000000000000000000000000000000000000000000815260040160405180910390fd5b6040517fa542c2a400000000000000000000000000000000000000000000000000000000815273ffffffffffffffffffffffffffffffffffffffff83811660048301527f0000000000000000000000000000000000000000000000000000000000000000169063a542c2a490602401602060405180830381865afa15801561069a573d6000803e3d6000fd5b505050506040513d601f19601f820116820180604052508101906106be91906121de565b6106f4576040517fa0c5538000000000000000000000000000000000000000000000000000000000815260040160405180910390fd5b600083815260208190526040902061070c9083611c75565b610742576040517f659f4bf800000000000000000000000000000000000000000000000000000000815260040160405180910390fd5b60405173ffffffffffffffffffffffffffffffffffffffff83169084907f8ba5cdc385bc6c37c9a05ad09fbc238589c43602f4cee09c46856027df8a935a90600090a3505050565b60008181526020819052604090206060906107a490611c97565b92915050565b6040517f6352211e000000000000000000000000000000000000000000000000000000008152600481018590528490339073ffffffffffffffffffffffffffffffffffffffff7f00000000000000000000000000000000000000000000000000000000000000001690636352211e90602401602060405180830381865afa158015610839573d6000803e3d6000fd5b505050506040513d601f19601f8201168201806040525081019061085d91906121c1565b73ffffffffffffffffffffffffffffffffffffffff16146108aa576040517f30cd747100000000000000000000000000000000000000000000000000000000815260040160405180910390fd5b6040517fe63697c80000000000000000000000000000000000000000000000000000000081526004810186905273ffffffffffffffffffffffffffffffffffffffff83811660248301526044820185905285169063e63697c890606401600060405180830381600087803b15801561092157600080fd5b505af1158015610935573d6000803e3d6000fd5b505050506714d1120d7b16000061094b8661098a565b1015610983576040517f40da557a00000000000000000000000000000000000000000000000000000000815260040160405180910390fd5b5050505050565b6040517f7f4781fc00000000000000000000000000000000000000000000000000000000815230600482015260248101829052600090819073ffffffffffffffffffffffffffffffffffffffff7f00000000000000000000000000000000000000000000000000000000000000001690637f4781fc90604401602060405180830381865afa158015610a20573d6000803e3d6000fd5b505050506040513d601f19601f82011682018060405250810190610a449190612200565b905080600003610a7657507fffffffffffffffffffffffffffffffffffffffffffffffffffffffffffffffff92915050565b610a8981610a8385611ab4565b90611ca4565b9392505050565b6040517f6352211e000000000000000000000000000000000000000000000000000000008152600481018390528290339073ffffffffffffffffffffffffffffffffffffffff7f00000000000000000000000000000000000000000000000000000000000000001690636352211e90602401602060405180830381865afa158015610b1f573d6000803e3d6000fd5b505050506040513d601f19601f82011682018060405250810190610b4391906121c1565b73ffffffffffffffffffffffffffffffffffffffff1614610b90576040517f30cd747100000000000000000000000000000000000000000000000000000000815260040160405180910390fd5b6040517f7692b6aa0000000000000000000000000000000000000000000000000000000081526004810184905260009073ffffffffffffffffffffffffffffffffffffffff841690637692b6aa90602401602060405180830381865afa158015610bfe573d6000803e3d6000fd5b505050506040513d601f19601f82011682018060405250810190610c229190612200565b1115610c5a576040517f53a4f9b400000000000000000000000000000000000000000000000000000000815260040160405180910390fd5b6000838152602081905260409020610c729083611cb9565b610ca8576040517fd3e232b300000000000000000000000000000000000000000000000000000000815260040160405180910390fd5b60405173ffffffffffffffffffffffffffffffffffffffff83169084907f0d141fd7c77072fc48765e24d85a4727dc79f72cbb320ad2ba944e2914a51e6d90600090a3505050565b6040517f6352211e000000000000000000000000000000000000000000000000000000008152600481018590526000908590339073ffffffffffffffffffffffffffffffffffffffff7f00000000000000000000000000000000000000000000000000000000000000001690636352211e90602401602060405180830381865afa158015610d82573d6000803e3d6000fd5b505050506040513d601f19601f82011682018060405250810190610da691906121c1565b73ffffffffffffffffffffffffffffffffffffffff1614610df3576040517f30cd747100000000000000000000000000000000000000000000000000000000815260040160405180910390fd5b6040517f9eea5f6600000000000000000000000000000000000000000000000000000000815260048101879052336024820152604481018590527f000000000000000000000000000000000000000000000000000000000000000073ffffffffffffffffffffffffffffffffffffffff1690639eea5f6690606401600060405180830381600087803b158015610e8857600080fd5b505af1158015610e9c573d6000803e3d6000fd5b50505050600085905060008173ffffffffffffffffffffffffffffffffffffffff1663d24378eb6040518163ffffffff1660e01b8152600401602060405180830381865afa158015610ef2573d6000803e3d6000fd5b505050506040513d601f19601f82011682018060405250810190610f169190612200565b8273ffffffffffffffffffffffffffffffffffffffff16637dc0d1d06040518163ffffffff1660e01b8152600401602060405180830381865afa158015610f61573d6000803e3d6000fd5b505050506040513d601f19601f82011682018060405250810190610f8591906121c1565b73ffffffffffffffffffffffffffffffffffffffff1663313ce5676040518163ffffffff1660e01b8152600401602060405180830381865afa158015610fcf573d6000803e3d6000fd5b505050506040513d601f19601f82011682018060405250810190610ff39190612219565b610ffe90600a61238b565b611008908861239a565b61101291906123b1565b9050611020888883886107aa565b8473ffffffffffffffffffffffffffffffffffffffff168773ffffffffffffffffffffffffffffffffffffffff16897fca70a9c93e1c3bc9192e8a6c70bf383ab46895bade3f9498e048cb1cdac8a1d28960405161108091815260200190565b60405180910390a4979650505050505050565b6040517f6352211e00000000000000000000000000000000000000000000000000000000815260048101849052839060009073ffffffffffffffffffffffffffffffffffffffff7f00000000000000000000000000000000000000000000000000000000000000001690636352211e90602401602060405180830381865afa158015611123573d6000803e3d6000fd5b505050506040513d601f19601f8201168201806040525081019061114791906121c1565b73ffffffffffffffffffffffffffffffffffffffff1603611194576040517f956c01f200000000000000000000000000000000000000000000000000000000815260040160405180910390fd5b600083905061122c3385858473ffffffffffffffffffffffffffffffffffffffff166338d52e0f6040518163ffffffff1660e01b8152600401602060405180830381865afa1580156111ea573d6000803e3d6000fd5b505050506040513d601f19601f8201168201806040525081019061120e91906121c1565b73ffffffffffffffffffffffffffffffffffffffff16929190611cdb565b6040517fe2bbb158000000000000000000000000000000000000000000000000000000008152600481018690526024810184905273ffffffffffffffffffffffffffffffffffffffff82169063e2bbb15890604401600060405180830381600087803b15801561129b57600080fd5b505af11580156112af573d6000803e3d6000fd5b505050505050505050565b6040517f6352211e000000000000000000000000000000000000000000000000000000008152600481018490528390339073ffffffffffffffffffffffffffffffffffffffff7f00000000000000000000000000000000000000000000000000000000000000001690636352211e90602401602060405180830381865afa158015611349573d6000803e3d6000fd5b505050506040513d601f19601f8201168201806040525081019061136d91906121c1565b73ffffffffffffffffffffffffffffffffffffffff16146113ba576040517f30cd747100000000000000000000000000000000000000000000000000000000815260040160405180910390fd5b6040517f836a10400000000000000000000000000000000000000000000000000000000081526004810185905273ffffffffffffffffffffffffffffffffffffffff8381166024830152604482018590527f0000000000000000000000000000000000000000000000000000000000000000169063836a104090606401600060405180830381600087803b15801561145157600080fd5b505af1158015611465573d6000803e3d6000fd5b505050506714d1120d7b16000061147b8561098a565b10156114b3576040517f40da557a00000000000000000000000000000000000000000000000000000000815260040160405180910390fd5b8173ffffffffffffffffffffffffffffffffffffffff16847f7f657cc58c2af5fee5c8056bebe6de1f2e33938cd0d3f6324198849bf504d35a856040516114fc91815260200190565b60405180910390a350505050565b6040517f6352211e00000000000000000000000000000000000000000000000000000000815260048101839052829060009073ffffffffffffffffffffffffffffffffffffffff7f00000000000000000000000000000000000000000000000000000000000000001690636352211e90602401602060405180830381865afa15801561159a573d6000803e3d6000fd5b505050506040513d601f19601f820116820180604052508101906115be91906121c1565b73ffffffffffffffffffffffffffffffffffffffff160361160b576040517f956c01f200000000000000000000000000000000000000000000000000000000815260040160405180910390fd5b6040517f6352211e00000000000000000000000000000000000000000000000000000000815260048101839052829060009073ffffffffffffffffffffffffffffffffffffffff7f00000000000000000000000000000000000000000000000000000000000000001690636352211e90602401602060405180830381865afa15801561169b573d6000803e3d6000fd5b505050506040513d601f19601f820116820180604052508101906116bf91906121c1565b73ffffffffffffffffffffffffffffffffffffffff160361170c576040517f956c01f200000000000000000000000000000000000000000000000000000000815260040160405180910390fd5b60006117178561098a565b90506714d1120d7b160000811061175a576040517f05e666e800000000000000000000000000000000000000000000000000000000815260040160405180910390fd5b6040517f7f4781fc0000000000000000000000000000000000000000000000000000000081523060048201526024810186905273ffffffffffffffffffffffffffffffffffffffff7f00000000000000000000000000000000000000000000000000000000000000001690639eea5f6690879033908490637f4781fc90604401602060405180830381865afa1580156117f7573d6000803e3d6000fd5b505050506040513d601f19601f8201168201806040525081019061181b9190612200565b6040517fffffffff0000000000000000000000000000000000000000000000000000000060e086901b168152600481019390935273ffffffffffffffffffffffffffffffffffffffff90911660248301526044820152606401600060405180830381600087803b15801561188e57600080fd5b505af11580156118a2573d6000803e3d6000fd5b505050506000670de0b6b3a764000082106118bd57816118c7565b670de0b6b3a76400005b905060006118ef670b1a2bc2ec5000006118e9670de0b6b3a7640000856123ec565b90611d9e565b9050600061190983610a8384670de0b6b3a76400006123ff565b60008981526020819052604081209192509061192490611c6b565b905060005b81811015611a795760008a81526020819052604081206119499083611db3565b905060006119d3858373ffffffffffffffffffffffffffffffffffffffff16637692b6aa8f6040518263ffffffff1660e01b815260040161198c91815260200190565b602060405180830381865afa1580156119a9573d6000803e3d6000fd5b505050506040513d601f19601f820116820180604052508101906119cd9190612200565b90611dbf565b6040517ffa7c9bcf000000000000000000000000000000000000000000000000000000008152600481018e9052602481018d90526044810182905290915073ffffffffffffffffffffffffffffffffffffffff83169063fa7c9bcf90606401600060405180830381600087803b158015611a4c57600080fd5b505af1158015611a60573d6000803e3d6000fd5b5050505050508080611a7190612412565b915050611929565b50604051889033908b907ff2bcfabb628d3e0f92291f1e0bc5f2322f8ac3af9e187670152968100e6b60a690600090a4505050505050505050565b600081815260208190526040812081908190611acf90611c6b565b905060005b81811015611c62576000858152602081905260408120611af49083611db3565b6040517fa542c2a400000000000000000000000000000000000000000000000000000000815273ffffffffffffffffffffffffffffffffffffffff80831660048301529192506000917f0000000000000000000000000000000000000000000000000000000000000000169063a542c2a490602401602060405180830381865afa158015611b86573d6000803e3d6000fd5b505050506040513d601f19601f82011682018060405250810190611baa91906121de565b15611c41576040517f073789e20000000000000000000000000000000000000000000000000000000081526004810188905273ffffffffffffffffffffffffffffffffffffffff83169063073789e290602401602060405180830381865afa158015611c1a573d6000803e3d6000fd5b505050506040513d601f19601f82011682018060405250810190611c3e9190612200565b90505b611c4b81866123ff565b945050508080611c5a90612412565b915050611ad4565b50909392505050565b60006107a4825490565b6000610a898373ffffffffffffffffffffffffffffffffffffffff8416611dd4565b60606000610a8983611e23565b6000610a8983670de0b6b3a764000084611e7f565b6000610a898373ffffffffffffffffffffffffffffffffffffffff8416611ebb565b60006040517f23b872dd0000000000000000000000000000000000000000000000000000000081528460048201528360248201528260448201526020600060648360008a5af13d15601f3d1160016000511416171691505080610983576040517f08c379a000000000000000000000000000000000000000000000000000000000815260206004820152601460248201527f5452414e534645525f46524f4d5f4641494c4544000000000000000000000000604482015260640160405180910390fd5b6000610a898383670de0b6b3a7640000611e7f565b6000610a898383611fae565b6000610a898383670de0b6b3a7640000611fd8565b6000818152600183016020526040812054611e1b575081546001818101845560008481526020808220909301849055845484825282860190935260409020919091556107a4565b5060006107a4565b606081600001805480602002602001604051908101604052809291908181526020018280548015611e7357602002820191906000526020600020905b815481526020019060010190808311611e5f575b50505050509050919050565b6000827fffffffffffffffffffffffffffffffffffffffffffffffffffffffffffffffff0484118302158202611eb457600080fd5b5091020490565b60008181526001830160205260408120548015611fa4576000611edf6001836123ec565b8554909150600090611ef3906001906123ec565b9050818114611f58576000866000018281548110611f1357611f1361244a565b9060005260206000200154905080876000018481548110611f3657611f3661244a565b6000918252602080832090910192909255918252600188019052604090208390555b8554869080611f6957611f69612479565b6001900381819060005260206000200160009055905585600101600086815260200190815260200160002060009055600193505050506107a4565b60009150506107a4565b6000826000018281548110611fc557611fc561244a565b9060005260206000200154905092915050565b6000827fffffffffffffffffffffffffffffffffffffffffffffffffffffffffffffffff048411830215820261200d57600080fd5b50910281810615159190040190565b6000806040838503121561202f57600080fd5b50508035926020909101359150565b73ffffffffffffffffffffffffffffffffffffffff8116811461206057600080fd5b50565b6000806040838503121561207657600080fd5b8235915060208301356120888161203e565b809150509250929050565b6000602082840312156120a557600080fd5b5035919050565b6020808252825182820181905260009190848201906040850190845b818110156120fa57835173ffffffffffffffffffffffffffffffffffffffff16835292840192918401916001016120c8565b50909695505050505050565b6000806000806080858703121561211c57600080fd5b84359350602085013561212e8161203e565b92506040850135915060608501356121458161203e565b939692955090935050565b60008060006060848603121561216557600080fd5b8335925060208401356121778161203e565b929592945050506040919091013590565b60008060006060848603121561219d57600080fd5b833592506020840135915060408401356121b68161203e565b809150509250925092565b6000602082840312156121d357600080fd5b8151610a898161203e565b6000602082840312156121f057600080fd5b81518015158114610a8957600080fd5b60006020828403121561221257600080fd5b5051919050565b60006020828403121561222b57600080fd5b815160ff81168114610a8957600080fd5b7f4e487b7100000000000000000000000000000000000000000000000000000000600052601160045260246000fd5b600181815b808511156122c457817fffffffffffffffffffffffffffffffffffffffffffffffffffffffffffffffff048211156122aa576122aa61223c565b808516156122b757918102915b93841c9390800290612270565b509250929050565b6000826122db575060016107a4565b816122e8575060006107a4565b81600181146122fe576002811461230857612324565b60019150506107a4565b60ff8411156123195761231961223c565b50506001821b6107a4565b5060208310610133831016604e8410600b8410161715612347575081810a6107a4565b612351838361226b565b807fffffffffffffffffffffffffffffffffffffffffffffffffffffffffffffffff048211156123835761238361223c565b029392505050565b6000610a8960ff8416836122cc565b80820281158282048414176107a4576107a461223c565b6000826123e7577f4e487b7100000000000000000000000000000000000000000000000000000000600052601260045260246000fd5b500490565b818103818111156107a4576107a461223c565b808201808211156107a4576107a461223c565b60007fffffffffffffffffffffffffffffffffffffffffffffffffffffffffffffffff82036124435761244361223c565b5060010190565b7f4e487b7100000000000000000000000000000000000000000000000000000000600052603260045260246000fd5b7f4e487b7100000000000000000000000000000000000000000000000000000000600052603160045260246000fdfea26469706673582212207b01eab42b3c158b30092a0683752f96ee71786ae6ee8684be3bdad03d2887b964736f6c63430008110033",
    "linkReferences": {}
  },
  "methodIdentifiers": {
    "LIQUIDATION_REWARD()": "ad0d7594",
    "MAX_VAULTS()": "b6eaea17",
    "MIN_COLLATERIZATION_RATIO()": "35f2faf0",
    "add(uint256,address)": "2b8bbbe8",
    "burnDyad(uint256,uint256)": "16ae57a3",
    "collatRatio(uint256)": "9c110fe1",
    "dNft()": "0f5eea91",
    "deposit(uint256,address,uint256)": "bc157ac1",
    "dyad()": "add95a51",
    "getTotalUsdValue(uint256)": "d4687b69",
    "getVaults(uint256)": "468d16d0",
    "liquidate(uint256,uint256)": "d296d1f1",
    "mintDyad(uint256,uint256,address)": "ccf2e886",
    "redeemDyad(uint256,address,uint256,address)": "9f0784ba",
    "remove(uint256,address)": "9dfa4e94",
    "vaultLicenser()": "13661699",
    "withdraw(uint256,address,uint256,address)": "5f0f48bd"
  },
  "id": 41
}