{
  "abi": [
    {
      "inputs": [
        {
          "internalType": "contract VaultManager",
          "name": "_vaultManager",
          "type": "address"
        },
        {
          "internalType": "contract ERC20",
          "name": "_asset",
          "type": "address"
        },
        {
          "internalType": "contract IAggregatorV3",
          "name": "_oracle",
          "type": "address"
        }
      ],
      "stateMutability": "nonpayable",
      "type": "constructor"
    },
    {
      "inputs": [],
      "name": "IncompleteRound",
      "type": "error"
    },
    {
      "inputs": [],
      "name": "NotVaultManager",
      "type": "error"
    },
    {
      "inputs": [],
      "name": "StaleData",
      "type": "error"
    },
    {
      "anonymous": false,
      "inputs": [
        {
          "indexed": true,
          "internalType": "uint256",
          "name": "id",
          "type": "uint256"
        },
        {
          "indexed": false,
          "internalType": "uint256",
          "name": "amount",
          "type": "uint256"
        }
      ],
      "name": "Deposit",
      "type": "event"
    },
    {
      "anonymous": false,
      "inputs": [
        {
          "indexed": true,
          "internalType": "uint256",
          "name": "from",
          "type": "uint256"
        },
        {
          "indexed": true,
          "internalType": "uint256",
          "name": "to",
          "type": "uint256"
        },
        {
          "indexed": false,
          "internalType": "uint256",
          "name": "amount",
          "type": "uint256"
        }
      ],
      "name": "Move",
      "type": "event"
    },
    {
      "anonymous": false,
      "inputs": [
        {
          "indexed": true,
          "internalType": "uint256",
          "name": "from",
          "type": "uint256"
        },
        {
          "indexed": true,
          "internalType": "address",
          "name": "to",
          "type": "address"
        },
        {
          "indexed": false,
          "internalType": "uint256",
          "name": "amount",
          "type": "uint256"
        }
      ],
      "name": "Withdraw",
      "type": "event"
    },
    {
      "inputs": [],
      "name": "asset",
      "outputs": [
        {
          "internalType": "contract ERC20",
          "name": "",
          "type": "address"
        }
      ],
      "stateMutability": "view",
      "type": "function"
    },
    {
      "inputs": [],
      "name": "assetPrice",
      "outputs": [
        {
          "internalType": "uint256",
          "name": "",
          "type": "uint256"
        }
      ],
      "stateMutability": "view",
      "type": "function"
    },
    {
      "inputs": [
        {
          "internalType": "uint256",
          "name": "id",
          "type": "uint256"
        },
        {
          "internalType": "uint256",
          "name": "amount",
          "type": "uint256"
        }
      ],
      "name": "deposit",
      "outputs": [],
      "stateMutability": "nonpayable",
      "type": "function"
    },
    {
      "inputs": [
        {
          "internalType": "uint256",
          "name": "id",
          "type": "uint256"
        }
      ],
      "name": "getUsdValue",
      "outputs": [
        {
          "internalType": "uint256",
          "name": "",
          "type": "uint256"
        }
      ],
      "stateMutability": "view",
      "type": "function"
    },
    {
      "inputs": [
        {
          "internalType": "uint256",
          "name": "",
          "type": "uint256"
        }
      ],
      "name": "id2asset",
      "outputs": [
        {
          "internalType": "uint256",
          "name": "",
          "type": "uint256"
        }
      ],
      "stateMutability": "view",
      "type": "function"
    },
    {
      "inputs": [
        {
          "internalType": "uint256",
          "name": "from",
          "type": "uint256"
        },
        {
          "internalType": "uint256",
          "name": "to",
          "type": "uint256"
        },
        {
          "internalType": "uint256",
          "name": "amount",
          "type": "uint256"
        }
      ],
      "name": "move",
      "outputs": [],
      "stateMutability": "nonpayable",
      "type": "function"
    },
    {
      "inputs": [],
      "name": "oracle",
      "outputs": [
        {
          "internalType": "contract IAggregatorV3",
          "name": "",
          "type": "address"
        }
      ],
      "stateMutability": "view",
      "type": "function"
    },
    {
      "inputs": [],
      "name": "vaultManager",
      "outputs": [
        {
          "internalType": "contract VaultManager",
          "name": "",
          "type": "address"
        }
      ],
      "stateMutability": "view",
      "type": "function"
    },
    {
      "inputs": [
        {
          "internalType": "uint256",
          "name": "id",
          "type": "uint256"
        },
        {
          "internalType": "address",
          "name": "to",
          "type": "address"
        },
        {
          "internalType": "uint256",
          "name": "amount",
          "type": "uint256"
        }
      ],
      "name": "withdraw",
      "outputs": [],
      "stateMutability": "nonpayable",
      "type": "function"
    }
  ],
  "bytecode": {
    "object": "0x60e060405234801561001057600080fd5b50604051610d0b380380610d0b83398101604081905261002f91610064565b6001600160a01b0392831660805290821660a0521660c0526100b1565b6001600160a01b038116811461006157600080fd5b50565b60008060006060848603121561007957600080fd5b83516100848161004c565b60208501519093506100958161004c565b60408501519092506100a68161004c565b809150509250925092565b60805160a05160c051610bfb6101106000396000818161013f01528181610269015261035801526000818160d3015281816101cf0152610604015260008181610166015281816104a40152818161056f01526106990152610bfb6000f3fe608060405234801561001057600080fd5b50600436106100a35760003560e01c80638a4adf2411610076578063e2bbb1581161005b578063e2bbb15814610190578063e63697c8146101a5578063fa7c9bcf146101b857600080fd5b80638a4adf2414610161578063d24378eb1461018857600080fd5b8063073789e2146100a857806338d52e0f146100ce5780637692b6aa1461011a5780637dc0d1d01461013a575b600080fd5b6100bb6100b636600461089e565b6101cb565b6040519081526020015b60405180910390f35b6100f57f000000000000000000000000000000000000000000000000000000000000000081565b60405173ffffffffffffffffffffffffffffffffffffffff90911681526020016100c5565b6100bb61012836600461089e565b60006020819052908152604090205481565b6100f57f000000000000000000000000000000000000000000000000000000000000000081565b6100f57f000000000000000000000000000000000000000000000000000000000000000081565b6100bb61034e565b6101a361019e3660046108b7565b61048c565b005b6101a36101b33660046108d9565b610557565b6101a36101c636600461092a565b610681565b60007f000000000000000000000000000000000000000000000000000000000000000073ffffffffffffffffffffffffffffffffffffffff1663313ce5676040518163ffffffff1660e01b8152600401602060405180830381865afa158015610238573d6000803e3d6000fd5b505050506040513d601f19601f8201168201806040525081019061025c9190610956565b61026790600a610acf565b7f000000000000000000000000000000000000000000000000000000000000000073ffffffffffffffffffffffffffffffffffffffff1663313ce5676040518163ffffffff1660e01b8152600401602060405180830381865afa1580156102d2573d6000803e3d6000fd5b505050506040513d601f19601f820116820180604052508101906102f69190610956565b61030190600a610acf565b61030961034e565b6000858152602081905260409020546103229190610ade565b61033490670de0b6b3a7640000610ade565b61033e9190610af5565b6103489190610af5565b92915050565b60008060008060007f000000000000000000000000000000000000000000000000000000000000000073ffffffffffffffffffffffffffffffffffffffff1663feaf968c6040518163ffffffff1660e01b815260040160a060405180830381865afa1580156103c1573d6000803e3d6000fd5b505050506040513d601f19601f820116820180604052508101906103e59190610b4f565b94509450509350935081600003610428576040517f8ad52bdd00000000000000000000000000000000000000000000000000000000815260040160405180910390fd5b8369ffffffffffffffffffff168169ffffffffffffffffffff16101561047a576040517f6ead710b00000000000000000000000000000000000000000000000000000000815260040160405180910390fd5b6104838361076a565b94505050505090565b3373ffffffffffffffffffffffffffffffffffffffff7f000000000000000000000000000000000000000000000000000000000000000016146104fb576040517f027f480700000000000000000000000000000000000000000000000000000000815260040160405180910390fd5b60008281526020819052604081208054839290610519908490610b9f565b909155505060405181815282907fa3af609bf46297028ce551832669030f9effef2b02606d02cbbcc40fe6b47c559060200160405180910390a25050565b3373ffffffffffffffffffffffffffffffffffffffff7f000000000000000000000000000000000000000000000000000000000000000016146105c6576040517f027f480700000000000000000000000000000000000000000000000000000000815260040160405180910390fd5b600083815260208190526040812080548392906105e4908490610bb2565b9091555061062b905073ffffffffffffffffffffffffffffffffffffffff7f00000000000000000000000000000000000000000000000000000000000000001683836107df565b8173ffffffffffffffffffffffffffffffffffffffff16837f9da6493a92039daf47d1f2d7a782299c5994c6323eb1e972f69c432089ec52bf8360405161067491815260200190565b60405180910390a3505050565b3373ffffffffffffffffffffffffffffffffffffffff7f000000000000000000000000000000000000000000000000000000000000000016146106f0576040517f027f480700000000000000000000000000000000000000000000000000000000815260040160405180910390fd5b6000838152602081905260408120805483929061070e908490610bb2565b909155505060008281526020819052604081208054839290610731908490610b9f565b9091555050604051818152829084907f7b4419c9db600f9cf56a16ec031da555aed923fa8228e732ae1e135811ab92f590602001610674565b6000808212156107db576040517f08c379a000000000000000000000000000000000000000000000000000000000815260206004820181905260248201527f53616665436173743a2076616c7565206d75737420626520706f73697469766560448201526064015b60405180910390fd5b5090565b60006040517fa9059cbb000000000000000000000000000000000000000000000000000000008152836004820152826024820152602060006044836000895af13d15601f3d1160016000511416171691505080610898576040517f08c379a000000000000000000000000000000000000000000000000000000000815260206004820152600f60248201527f5452414e534645525f4641494c4544000000000000000000000000000000000060448201526064016107d2565b50505050565b6000602082840312156108b057600080fd5b5035919050565b600080604083850312156108ca57600080fd5b50508035926020909101359150565b6000806000606084860312156108ee57600080fd5b83359250602084013573ffffffffffffffffffffffffffffffffffffffff8116811461091957600080fd5b929592945050506040919091013590565b60008060006060848603121561093f57600080fd5b505081359360208301359350604090920135919050565b60006020828403121561096857600080fd5b815160ff8116811461097957600080fd5b9392505050565b7f4e487b7100000000000000000000000000000000000000000000000000000000600052601160045260246000fd5b600181815b80851115610a0857817fffffffffffffffffffffffffffffffffffffffffffffffffffffffffffffffff048211156109ee576109ee610980565b808516156109fb57918102915b93841c93908002906109b4565b509250929050565b600082610a1f57506001610348565b81610a2c57506000610348565b8160018114610a425760028114610a4c57610a68565b6001915050610348565b60ff841115610a5d57610a5d610980565b50506001821b610348565b5060208310610133831016604e8410600b8410161715610a8b575081810a610348565b610a9583836109af565b807fffffffffffffffffffffffffffffffffffffffffffffffffffffffffffffffff04821115610ac757610ac7610980565b029392505050565b600061097960ff841683610a10565b808202811582820484141761034857610348610980565b600082610b2b577f4e487b7100000000000000000000000000000000000000000000000000000000600052601260045260246000fd5b500490565b805169ffffffffffffffffffff81168114610b4a57600080fd5b919050565b600080600080600060a08688031215610b6757600080fd5b610b7086610b30565b9450602086015193506040860151925060608601519150610b9360808701610b30565b90509295509295909350565b8082018082111561034857610348610980565b818103818111156103485761034861098056fea26469706673582212208aec03efb4bd87606e1ca5ae782da95f6337339472ff020a8f416ffc4123e7b664736f6c63430008110033",
    "linkReferences": {}
  },
  "methodIdentifiers": {
    "asset()": "38d52e0f",
    "assetPrice()": "d24378eb",
    "deposit(uint256,uint256)": "e2bbb158",
    "getUsdValue(uint256)": "073789e2",
    "id2asset(uint256)": "7692b6aa",
    "move(uint256,uint256,uint256)": "fa7c9bcf",
    "oracle()": "7dc0d1d0",
    "vaultManager()": "8a4adf24",
    "withdraw(uint256,address,uint256)": "e63697c8"
  },
  "id": 40
}