{
  "abi": [
    {
      "inputs": [
        {
          "internalType": "contract DNft",
          "name": "_dNft",
          "type": "address"
        },
        {
          "internalType": "contract Dyad",
          "name": "_dyad",
          "type": "address"
        },
        {
          "internalType": "contract Licenser",
          "name": "_licenser",
          "type": "address"
        }
      ],
      "stateMutability": "nonpayable",
      "type": "constructor"
    },
    {
      "inputs": [],
      "name": "CrTooHigh",
      "type": "error"
    },
    {
      "inputs": [],
      "name": "CrTooLow",
      "type": "error"
    },
    {
      "inputs": [],
      "name": "InvalidDNft",
      "type": "error"
    },
    {
      "inputs": [],
      "name": "NotDNftVault",
      "type": "error"
    },
    {
      "inputs": [],
      "name": "NotLicensed",
      "type": "error"
    },
    {
      "inputs": [],
      "name": "NotOwner",
      "type": "error"
    },
    {
      "inputs": [],
      "name": "OnlyOwner",
      "type": "error"
    },
    {
      "inputs": [],
      "name": "TooManyVaults",
      "type": "error"
    },
    {
      "inputs": [],
      "name": "VaultAlreadyAdded",
      "type": "error"
    },
    {
      "inputs": [],
      "name": "VaultHasAssets",
      "type": "error"
    },
    {
      "inputs": [],
      "name": "VaultNotAdded",
      "type": "error"
    },
    {
      "inputs": [],
      "name": "VaultNotLicensed",
      "type": "error"
    },
    {
      "anonymous": false,
      "inputs": [
        {
          "indexed": true,
          "internalType": "uint256",
          "name": "id",
          "type": "uint256"
        },
        {
          "indexed": true,
          "internalType": "address",
          "name": "vault",
          "type": "address"
        }
      ],
      "name": "Added",
      "type": "event"
    },
    {
      "anonymous": false,
      "inputs": [
        {
          "indexed": true,
          "internalType": "uint256",
          "name": "id",
          "type": "uint256"
        },
        {
          "indexed": false,
          "internalType": "uint256",
          "name": "amount",
          "type": "uint256"
        },
        {
          "indexed": true,
          "internalType": "address",
          "name": "from",
          "type": "address"
        }
      ],
      "name": "BurnDyad",
      "type": "event"
    },
    {
      "anonymous": false,
      "inputs": [
        {
          "indexed": true,
          "internalType": "uint256",
          "name": "id",
          "type": "uint256"
        },
        {
          "indexed": true,
          "internalType": "address",
          "name": "from",
          "type": "address"
        },
        {
          "indexed": true,
          "internalType": "uint256",
          "name": "to",
          "type": "uint256"
        }
      ],
      "name": "Liquidate",
      "type": "event"
    },
    {
      "anonymous": false,
      "inputs": [
        {
          "indexed": true,
          "internalType": "uint256",
          "name": "id",
          "type": "uint256"
        },
        {
          "indexed": false,
          "internalType": "uint256",
          "name": "amount",
          "type": "uint256"
        },
        {
          "indexed": true,
          "internalType": "address",
          "name": "to",
          "type": "address"
        }
      ],
      "name": "MintDyad",
      "type": "event"
    },
    {
      "anonymous": false,
      "inputs": [
        {
          "indexed": true,
          "internalType": "uint256",
          "name": "id",
          "type": "uint256"
        },
        {
          "indexed": true,
          "internalType": "address",
          "name": "vault",
          "type": "address"
        },
        {
          "indexed": false,
          "internalType": "uint256",
          "name": "amount",
          "type": "uint256"
        },
        {
          "indexed": true,
          "internalType": "address",
          "name": "to",
          "type": "address"
        }
      ],
      "name": "RedeemDyad",
      "type": "event"
    },
    {
      "anonymous": false,
      "inputs": [
        {
          "indexed": true,
          "internalType": "uint256",
          "name": "id",
          "type": "uint256"
        },
        {
          "indexed": true,
          "internalType": "address",
          "name": "vault",
          "type": "address"
        }
      ],
      "name": "Removed",
      "type": "event"
    },
    {
      "inputs": [],
      "name": "LIQUIDATION_REWARD",
      "outputs": [
        {
          "internalType": "uint256",
          "name": "",
          "type": "uint256"
        }
      ],
      "stateMutability": "view",
      "type": "function"
    },
    {
      "inputs": [],
      "name": "MAX_VAULTS",
      "outputs": [
        {
          "internalType": "uint256",
          "name": "",
          "type": "uint256"
        }
      ],
      "stateMutability": "view",
      "type": "function"
    },
    {
      "inputs": [],
      "name": "MIN_COLLATERIZATION_RATIO",
      "outputs": [
        {
          "internalType": "uint256",
          "name": "",
          "type": "uint256"
        }
      ],
      "stateMutability": "view",
      "type": "function"
    },
    {
      "inputs": [
        {
          "internalType": "uint256",
          "name": "id",
          "type": "uint256"
        },
        {
          "internalType": "address",
          "name": "vault",
          "type": "address"
        }
      ],
      "name": "add",
      "outputs": [],
      "stateMutability": "nonpayable",
      "type": "function"
    },
    {
      "inputs": [
        {
          "internalType": "uint256",
          "name": "id",
          "type": "uint256"
        },
        {
          "internalType": "uint256",
          "name": "amount",
          "type": "uint256"
        }
      ],
      "name": "burnDyad",
      "outputs": [],
      "stateMutability": "nonpayable",
      "type": "function"
    },
    {
      "inputs": [
        {
          "internalType": "uint256",
          "name": "id",
          "type": "uint256"
        }
      ],
      "name": "collatRatio",
      "outputs": [
        {
          "internalType": "uint256",
          "name": "",
          "type": "uint256"
        }
      ],
      "stateMutability": "view",
      "type": "function"
    },
    {
      "inputs": [],
      "name": "dNft",
      "outputs": [
        {
          "internalType": "contract DNft",
          "name": "",
          "type": "address"
        }
      ],
      "stateMutability": "view",
      "type": "function"
    },
    {
      "inputs": [
        {
          "internalType": "uint256",
          "name": "id",
          "type": "uint256"
        },
        {
          "internalType": "address",
          "name": "vault",
          "type": "address"
        },
        {
          "internalType": "uint256",
          "name": "amount",
          "type": "uint256"
        }
      ],
      "name": "deposit",
      "outputs": [],
      "stateMutability": "nonpayable",
      "type": "function"
    },
    {
      "inputs": [],
      "name": "dyad",
      "outputs": [
        {
          "internalType": "contract Dyad",
          "name": "",
          "type": "address"
        }
      ],
      "stateMutability": "view",
      "type": "function"
    },
    {
      "inputs": [
        {
          "internalType": "uint256",
          "name": "id",
          "type": "uint256"
        }
      ],
      "name": "getTotalUsdValue",
      "outputs": [
        {
          "internalType": "uint256",
          "name": "",
          "type": "uint256"
        }
      ],
      "stateMutability": "view",
      "type": "function"
    },
    {
      "inputs": [
        {
          "internalType": "uint256",
          "name": "id",
          "type": "uint256"
        }
      ],
      "name": "getVaults",
      "outputs": [
        {
          "internalType": "address[]",
          "name": "",
          "type": "address[]"
        }
      ],
      "stateMutability": "view",
      "type": "function"
    },
    {
      "inputs": [
        {
          "internalType": "uint256",
          "name": "id",
          "type": "uint256"
        },
        {
          "internalType": "address",
          "name": "vault",
          "type": "address"
        }
      ],
      "name": "hasVault",
      "outputs": [
        {
          "internalType": "bool",
          "name": "",
          "type": "bool"
        }
      ],
      "stateMutability": "view",
      "type": "function"
    },
    {
      "inputs": [
        {
          "internalType": "uint256",
          "name": "id",
          "type": "uint256"
        },
        {
          "internalType": "uint256",
          "name": "to",
          "type": "uint256"
        }
      ],
      "name": "liquidate",
      "outputs": [],
      "stateMutability": "nonpayable",
      "type": "function"
    },
    {
      "inputs": [
        {
          "internalType": "uint256",
          "name": "id",
          "type": "uint256"
        },
        {
          "internalType": "uint256",
          "name": "amount",
          "type": "uint256"
        },
        {
          "internalType": "address",
          "name": "to",
          "type": "address"
        }
      ],
      "name": "mintDyad",
      "outputs": [],
      "stateMutability": "nonpayable",
      "type": "function"
    },
    {
      "inputs": [
        {
          "internalType": "uint256",
          "name": "id",
          "type": "uint256"
        },
        {
          "internalType": "address",
          "name": "vault",
          "type": "address"
        },
        {
          "internalType": "uint256",
          "name": "amount",
          "type": "uint256"
        },
        {
          "internalType": "address",
          "name": "to",
          "type": "address"
        }
      ],
      "name": "redeemDyad",
      "outputs": [
        {
          "internalType": "uint256",
          "name": "",
          "type": "uint256"
        }
      ],
      "stateMutability": "nonpayable",
      "type": "function"
    },
    {
      "inputs": [
        {
          "internalType": "uint256",
          "name": "id",
          "type": "uint256"
        },
        {
          "internalType": "address",
          "name": "vault",
          "type": "address"
        }
      ],
      "name": "remove",
      "outputs": [],
      "stateMutability": "nonpayable",
      "type": "function"
    },
    {
      "inputs": [],
      "name": "vaultLicenser",
      "outputs": [
        {
          "internalType": "contract Licenser",
          "name": "",
          "type": "address"
        }
      ],
      "stateMutability": "view",
      "type": "function"
    },
    {
      "inputs": [
        {
          "internalType": "uint256",
          "name": "id",
          "type": "uint256"
        },
        {
          "internalType": "address",
          "name": "vault",
          "type": "address"
        },
        {
          "internalType": "uint256",
          "name": "amount",
          "type": "uint256"
        },
        {
          "internalType": "address",
          "name": "to",
          "type": "address"
        }
      ],
      "name": "withdraw",
      "outputs": [],
      "stateMutability": "nonpayable",
      "type": "function"
    }
  ],
  "bytecode": {
    "object": "0x60e06040523480156200001157600080fd5b50604051620027d5380380620027d583398101604081905262000034916200006b565b6001600160a01b0392831660805290821660a0521660c052620000bf565b6001600160a01b03811681146200006857600080fd5b50565b6000806000606084860312156200008157600080fd5b83516200008e8162000052565b6020850151909350620000a18162000052565b6040850151909250620000b48162000052565b809150509250925092565b60805160a05160c0516126766200015f60003960008181610191015281816106910152611c770152600081816102780152818161044e01528181610a1701528181610e6d0152818161154501526118dc0152600081816101400152818161035a015281816105430152818161083001528181610b1601528181610d79015281816112140152818161143a0152818161168b015261178c01526126766000f3fe608060405234801561001057600080fd5b50600436106101365760003560e01c80639f0784ba116100b2578063bc157ac111610081578063d296d1f111610066578063d296d1f1146102c8578063d4687b69146102db578063dd7f27a4146102ee57600080fd5b8063bc157ac1146102a2578063ccf2e886146102b557600080fd5b80639f0784ba14610251578063ad0d759414610264578063add95a5114610273578063b6eaea171461029a57600080fd5b806335f2faf0116101095780635f0f48bd116100ee5780635f0f48bd146102185780639c110fe11461022b5780639dfa4e941461023e57600080fd5b806335f2faf0146101db578063468d16d0146101f857600080fd5b80630f5eea911461013b578063136616991461018c57806316ae57a3146101b35780632b8bbbe8146101c8575b600080fd5b6101627f000000000000000000000000000000000000000000000000000000000000000081565b60405173ffffffffffffffffffffffffffffffffffffffff90911681526020015b60405180910390f35b6101627f000000000000000000000000000000000000000000000000000000000000000081565b6101c66101c136600461219b565b610311565b005b6101c66101d63660046121e2565b6104fb565b6101ea6714d1120d7b16000081565b604051908152602001610183565b61020b610206366004612212565b6107c8565b604051610183919061222b565b6101c6610226366004612285565b6107e8565b6101ea610239366004612212565b6109c8565b6101c661024c3660046121e2565b610ace565b6101ea61025f366004612285565b610d2e565b6101ea6702c68af0bb14000081565b6101627f000000000000000000000000000000000000000000000000000000000000000081565b6101ea600581565b6101c66102b03660046122cf565b6111cb565b6101c66102c3366004612307565b6113f2565b6101c66102d636600461219b565b611642565b6101ea6102e9366004612212565b611bec565b6103016102fc3660046121e2565b611da3565b6040519015158152602001610183565b6040517f6352211e00000000000000000000000000000000000000000000000000000000815260048101839052829060009073ffffffffffffffffffffffffffffffffffffffff7f00000000000000000000000000000000000000000000000000000000000000001690636352211e90602401602060405180830381865afa1580156103a1573d6000803e3d6000fd5b505050506040513d601f19601f820116820180604052508101906103c59190612340565b73ffffffffffffffffffffffffffffffffffffffff1603610412576040517f956c01f200000000000000000000000000000000000000000000000000000000815260040160405180910390fd5b6040517f9eea5f6600000000000000000000000000000000000000000000000000000000815260048101849052336024820152604481018390527f000000000000000000000000000000000000000000000000000000000000000073ffffffffffffffffffffffffffffffffffffffff1690639eea5f6690606401600060405180830381600087803b1580156104a757600080fd5b505af11580156104bb573d6000803e3d6000fd5b50506040518481523392508591507f0c3afe79693a0a8b287c7976e65c25875b65e90c75f5f3679c491cf27b7c1ab29060200160405180910390a3505050565b6040517f6352211e000000000000000000000000000000000000000000000000000000008152600481018390528290339073ffffffffffffffffffffffffffffffffffffffff7f00000000000000000000000000000000000000000000000000000000000000001690636352211e90602401602060405180830381865afa15801561058a573d6000803e3d6000fd5b505050506040513d601f19601f820116820180604052508101906105ae9190612340565b73ffffffffffffffffffffffffffffffffffffffff16146105fb576040517f30cd747100000000000000000000000000000000000000000000000000000000815260040160405180910390fd5b600083815260208190526040902060059061061590611dbb565b1061064c576040517f0c93121000000000000000000000000000000000000000000000000000000000815260040160405180910390fd5b6040517fa542c2a400000000000000000000000000000000000000000000000000000000815273ffffffffffffffffffffffffffffffffffffffff83811660048301527f0000000000000000000000000000000000000000000000000000000000000000169063a542c2a490602401602060405180830381865afa1580156106d8573d6000803e3d6000fd5b505050506040513d601f19601f820116820180604052508101906106fc919061235d565b610732576040517fa0c5538000000000000000000000000000000000000000000000000000000000815260040160405180910390fd5b600083815260208190526040902061074a9083611dc5565b610780576040517f659f4bf800000000000000000000000000000000000000000000000000000000815260040160405180910390fd5b60405173ffffffffffffffffffffffffffffffffffffffff83169084907f8ba5cdc385bc6c37c9a05ad09fbc238589c43602f4cee09c46856027df8a935a90600090a3505050565b60008181526020819052604090206060906107e290611de7565b92915050565b6040517f6352211e000000000000000000000000000000000000000000000000000000008152600481018590528490339073ffffffffffffffffffffffffffffffffffffffff7f00000000000000000000000000000000000000000000000000000000000000001690636352211e90602401602060405180830381865afa158015610877573d6000803e3d6000fd5b505050506040513d601f19601f8201168201806040525081019061089b9190612340565b73ffffffffffffffffffffffffffffffffffffffff16146108e8576040517f30cd747100000000000000000000000000000000000000000000000000000000815260040160405180910390fd5b6040517fe63697c80000000000000000000000000000000000000000000000000000000081526004810186905273ffffffffffffffffffffffffffffffffffffffff83811660248301526044820185905285169063e63697c890606401600060405180830381600087803b15801561095f57600080fd5b505af1158015610973573d6000803e3d6000fd5b505050506714d1120d7b160000610989866109c8565b10156109c1576040517f40da557a00000000000000000000000000000000000000000000000000000000815260040160405180910390fd5b5050505050565b6040517f7f4781fc00000000000000000000000000000000000000000000000000000000815230600482015260248101829052600090819073ffffffffffffffffffffffffffffffffffffffff7f00000000000000000000000000000000000000000000000000000000000000001690637f4781fc90604401602060405180830381865afa158015610a5e573d6000803e3d6000fd5b505050506040513d601f19601f82011682018060405250810190610a82919061237f565b905080600003610ab457507fffffffffffffffffffffffffffffffffffffffffffffffffffffffffffffffff92915050565b610ac781610ac185611bec565b90611df4565b9392505050565b6040517f6352211e000000000000000000000000000000000000000000000000000000008152600481018390528290339073ffffffffffffffffffffffffffffffffffffffff7f00000000000000000000000000000000000000000000000000000000000000001690636352211e90602401602060405180830381865afa158015610b5d573d6000803e3d6000fd5b505050506040513d601f19601f82011682018060405250810190610b819190612340565b73ffffffffffffffffffffffffffffffffffffffff1614610bce576040517f30cd747100000000000000000000000000000000000000000000000000000000815260040160405180910390fd5b6040517f7692b6aa0000000000000000000000000000000000000000000000000000000081526004810184905260009073ffffffffffffffffffffffffffffffffffffffff841690637692b6aa90602401602060405180830381865afa158015610c3c573d6000803e3d6000fd5b505050506040513d601f19601f82011682018060405250810190610c60919061237f565b1115610c98576040517f53a4f9b400000000000000000000000000000000000000000000000000000000815260040160405180910390fd5b6000838152602081905260409020610cb09083611e09565b610ce6576040517fd3e232b300000000000000000000000000000000000000000000000000000000815260040160405180910390fd5b60405173ffffffffffffffffffffffffffffffffffffffff83169084907f0d141fd7c77072fc48765e24d85a4727dc79f72cbb320ad2ba944e2914a51e6d90600090a3505050565b6040517f6352211e000000000000000000000000000000000000000000000000000000008152600481018590526000908590339073ffffffffffffffffffffffffffffffffffffffff7f00000000000000000000000000000000000000000000000000000000000000001690636352211e90602401602060405180830381865afa158015610dc0573d6000803e3d6000fd5b505050506040513d601f19601f82011682018060405250810190610de49190612340565b73ffffffffffffffffffffffffffffffffffffffff1614610e31576040517f30cd747100000000000000000000000000000000000000000000000000000000815260040160405180910390fd5b6040517f9eea5f6600000000000000000000000000000000000000000000000000000000815260048101879052336024820152604481018590527f000000000000000000000000000000000000000000000000000000000000000073ffffffffffffffffffffffffffffffffffffffff1690639eea5f6690606401600060405180830381600087803b158015610ec657600080fd5b505af1158015610eda573d6000803e3d6000fd5b5050505060008590506000670de0b6b3a76400008273ffffffffffffffffffffffffffffffffffffffff1663d24378eb6040518163ffffffff1660e01b8152600401602060405180830381865afa158015610f39573d6000803e3d6000fd5b505050506040513d601f19601f82011682018060405250810190610f5d919061237f565b8373ffffffffffffffffffffffffffffffffffffffff166338d52e0f6040518163ffffffff1660e01b8152600401602060405180830381865afa158015610fa8573d6000803e3d6000fd5b505050506040513d601f19601f82011682018060405250810190610fcc9190612340565b73ffffffffffffffffffffffffffffffffffffffff1663313ce5676040518163ffffffff1660e01b8152600401602060405180830381865afa158015611016573d6000803e3d6000fd5b505050506040513d601f19601f8201168201806040525081019061103a9190612398565b8473ffffffffffffffffffffffffffffffffffffffff16637dc0d1d06040518163ffffffff1660e01b8152600401602060405180830381865afa158015611085573d6000803e3d6000fd5b505050506040513d601f19601f820116820180604052508101906110a99190612340565b73ffffffffffffffffffffffffffffffffffffffff1663313ce5676040518163ffffffff1660e01b8152600401602060405180830381865afa1580156110f3573d6000803e3d6000fd5b505050506040513d601f19601f820116820180604052508101906111179190612398565b61112191906123ea565b61112c90600a612523565b6111369089612532565b6111409190612549565b61114a9190612549565b9050611158888883886107e8565b8473ffffffffffffffffffffffffffffffffffffffff168773ffffffffffffffffffffffffffffffffffffffff16897fca70a9c93e1c3bc9192e8a6c70bf383ab46895bade3f9498e048cb1cdac8a1d2896040516111b891815260200190565b60405180910390a4979650505050505050565b6040517f6352211e00000000000000000000000000000000000000000000000000000000815260048101849052839060009073ffffffffffffffffffffffffffffffffffffffff7f00000000000000000000000000000000000000000000000000000000000000001690636352211e90602401602060405180830381865afa15801561125b573d6000803e3d6000fd5b505050506040513d601f19601f8201168201806040525081019061127f9190612340565b73ffffffffffffffffffffffffffffffffffffffff16036112cc576040517f956c01f200000000000000000000000000000000000000000000000000000000815260040160405180910390fd5b60008390506113643385858473ffffffffffffffffffffffffffffffffffffffff166338d52e0f6040518163ffffffff1660e01b8152600401602060405180830381865afa158015611322573d6000803e3d6000fd5b505050506040513d601f19601f820116820180604052508101906113469190612340565b73ffffffffffffffffffffffffffffffffffffffff16929190611e2b565b6040517fe2bbb158000000000000000000000000000000000000000000000000000000008152600481018690526024810184905273ffffffffffffffffffffffffffffffffffffffff82169063e2bbb15890604401600060405180830381600087803b1580156113d357600080fd5b505af11580156113e7573d6000803e3d6000fd5b505050505050505050565b6040517f6352211e000000000000000000000000000000000000000000000000000000008152600481018490528390339073ffffffffffffffffffffffffffffffffffffffff7f00000000000000000000000000000000000000000000000000000000000000001690636352211e90602401602060405180830381865afa158015611481573d6000803e3d6000fd5b505050506040513d601f19601f820116820180604052508101906114a59190612340565b73ffffffffffffffffffffffffffffffffffffffff16146114f2576040517f30cd747100000000000000000000000000000000000000000000000000000000815260040160405180910390fd5b6040517f836a10400000000000000000000000000000000000000000000000000000000081526004810185905273ffffffffffffffffffffffffffffffffffffffff8381166024830152604482018590527f0000000000000000000000000000000000000000000000000000000000000000169063836a104090606401600060405180830381600087803b15801561158957600080fd5b505af115801561159d573d6000803e3d6000fd5b505050506714d1120d7b1600006115b3856109c8565b10156115eb576040517f40da557a00000000000000000000000000000000000000000000000000000000815260040160405180910390fd5b8173ffffffffffffffffffffffffffffffffffffffff16847f7f657cc58c2af5fee5c8056bebe6de1f2e33938cd0d3f6324198849bf504d35a8560405161163491815260200190565b60405180910390a350505050565b6040517f6352211e00000000000000000000000000000000000000000000000000000000815260048101839052829060009073ffffffffffffffffffffffffffffffffffffffff7f00000000000000000000000000000000000000000000000000000000000000001690636352211e90602401602060405180830381865afa1580156116d2573d6000803e3d6000fd5b505050506040513d601f19601f820116820180604052508101906116f69190612340565b73ffffffffffffffffffffffffffffffffffffffff1603611743576040517f956c01f200000000000000000000000000000000000000000000000000000000815260040160405180910390fd5b6040517f6352211e00000000000000000000000000000000000000000000000000000000815260048101839052829060009073ffffffffffffffffffffffffffffffffffffffff7f00000000000000000000000000000000000000000000000000000000000000001690636352211e90602401602060405180830381865afa1580156117d3573d6000803e3d6000fd5b505050506040513d601f19601f820116820180604052508101906117f79190612340565b73ffffffffffffffffffffffffffffffffffffffff1603611844576040517f956c01f200000000000000000000000000000000000000000000000000000000815260040160405180910390fd5b600061184f856109c8565b90506714d1120d7b1600008110611892576040517f05e666e800000000000000000000000000000000000000000000000000000000815260040160405180910390fd5b6040517f7f4781fc0000000000000000000000000000000000000000000000000000000081523060048201526024810186905273ffffffffffffffffffffffffffffffffffffffff7f00000000000000000000000000000000000000000000000000000000000000001690639eea5f6690879033908490637f4781fc90604401602060405180830381865afa15801561192f573d6000803e3d6000fd5b505050506040513d601f19601f82011682018060405250810190611953919061237f565b6040517fffffffff0000000000000000000000000000000000000000000000000000000060e086901b168152600481019390935273ffffffffffffffffffffffffffffffffffffffff90911660248301526044820152606401600060405180830381600087803b1580156119c657600080fd5b505af11580156119da573d6000803e3d6000fd5b505050506000670de0b6b3a764000082106119f557816119ff565b670de0b6b3a76400005b90506000611a276702c68af0bb140000611a21670de0b6b3a764000085612584565b90611eee565b90506000611a4183610ac184670de0b6b3a7640000612597565b600089815260208190526040812091925090611a5c90611dbb565b905060005b81811015611bb15760008a8152602081905260408120611a819083611f03565b90506000611b0b858373ffffffffffffffffffffffffffffffffffffffff16637692b6aa8f6040518263ffffffff1660e01b8152600401611ac491815260200190565b602060405180830381865afa158015611ae1573d6000803e3d6000fd5b505050506040513d601f19601f82011682018060405250810190611b05919061237f565b90611f0f565b6040517ffa7c9bcf000000000000000000000000000000000000000000000000000000008152600481018e9052602481018d90526044810182905290915073ffffffffffffffffffffffffffffffffffffffff83169063fa7c9bcf90606401600060405180830381600087803b158015611b8457600080fd5b505af1158015611b98573d6000803e3d6000fd5b5050505050508080611ba9906125aa565b915050611a61565b50604051889033908b907ff2bcfabb628d3e0f92291f1e0bc5f2322f8ac3af9e187670152968100e6b60a690600090a4505050505050505050565b600081815260208190526040812081908190611c0790611dbb565b905060005b81811015611d9a576000858152602081905260408120611c2c9083611f03565b6040517fa542c2a400000000000000000000000000000000000000000000000000000000815273ffffffffffffffffffffffffffffffffffffffff80831660048301529192506000917f0000000000000000000000000000000000000000000000000000000000000000169063a542c2a490602401602060405180830381865afa158015611cbe573d6000803e3d6000fd5b505050506040513d601f19601f82011682018060405250810190611ce2919061235d565b15611d79576040517f073789e20000000000000000000000000000000000000000000000000000000081526004810188905273ffffffffffffffffffffffffffffffffffffffff83169063073789e290602401602060405180830381865afa158015611d52573d6000803e3d6000fd5b505050506040513d601f19601f82011682018060405250810190611d76919061237f565b90505b611d838186612597565b945050508080611d92906125aa565b915050611c0c565b50909392505050565b6000828152602081905260408120610ac79083611f24565b60006107e2825490565b6000610ac78373ffffffffffffffffffffffffffffffffffffffff8416611f53565b60606000610ac783611fa2565b6000610ac783670de0b6b3a764000084611ffe565b6000610ac78373ffffffffffffffffffffffffffffffffffffffff841661203a565b60006040517f23b872dd0000000000000000000000000000000000000000000000000000000081528460048201528360248201528260448201526020600060648360008a5af13d15601f3d11600160005114161716915050806109c1576040517f08c379a000000000000000000000000000000000000000000000000000000000815260206004820152601460248201527f5452414e534645525f46524f4d5f4641494c4544000000000000000000000000604482015260640160405180910390fd5b6000610ac78383670de0b6b3a7640000611ffe565b6000610ac7838361212d565b6000610ac78383670de0b6b3a7640000612157565b73ffffffffffffffffffffffffffffffffffffffff811660009081526001830160205260408120541515610ac7565b6000818152600183016020526040812054611f9a575081546001818101845560008481526020808220909301849055845484825282860190935260409020919091556107e2565b5060006107e2565b606081600001805480602002602001604051908101604052809291908181526020018280548015611ff257602002820191906000526020600020905b815481526020019060010190808311611fde575b50505050509050919050565b6000827fffffffffffffffffffffffffffffffffffffffffffffffffffffffffffffffff048411830215820261203357600080fd5b5091020490565b6000818152600183016020526040812054801561212357600061205e600183612584565b855490915060009061207290600190612584565b90508181146120d7576000866000018281548110612092576120926125e2565b90600052602060002001549050808760000184815481106120b5576120b56125e2565b6000918252602080832090910192909255918252600188019052604090208390555b85548690806120e8576120e8612611565b6001900381819060005260206000200160009055905585600101600086815260200190815260200160002060009055600193505050506107e2565b60009150506107e2565b6000826000018281548110612144576121446125e2565b9060005260206000200154905092915050565b6000827fffffffffffffffffffffffffffffffffffffffffffffffffffffffffffffffff048411830215820261218c57600080fd5b50910281810615159190040190565b600080604083850312156121ae57600080fd5b50508035926020909101359150565b73ffffffffffffffffffffffffffffffffffffffff811681146121df57600080fd5b50565b600080604083850312156121f557600080fd5b823591506020830135612207816121bd565b809150509250929050565b60006020828403121561222457600080fd5b5035919050565b6020808252825182820181905260009190848201906040850190845b8181101561227957835173ffffffffffffffffffffffffffffffffffffffff1683529284019291840191600101612247565b50909695505050505050565b6000806000806080858703121561229b57600080fd5b8435935060208501356122ad816121bd565b92506040850135915060608501356122c4816121bd565b939692955090935050565b6000806000606084860312156122e457600080fd5b8335925060208401356122f6816121bd565b929592945050506040919091013590565b60008060006060848603121561231c57600080fd5b83359250602084013591506040840135612335816121bd565b809150509250925092565b60006020828403121561235257600080fd5b8151610ac7816121bd565b60006020828403121561236f57600080fd5b81518015158114610ac757600080fd5b60006020828403121561239157600080fd5b5051919050565b6000602082840312156123aa57600080fd5b815160ff81168114610ac757600080fd5b7f4e487b7100000000000000000000000000000000000000000000000000000000600052601160045260246000fd5b60ff81811683821601908111156107e2576107e26123bb565b600181815b8085111561245c57817fffffffffffffffffffffffffffffffffffffffffffffffffffffffffffffffff04821115612442576124426123bb565b8085161561244f57918102915b93841c9390800290612408565b509250929050565b600082612473575060016107e2565b81612480575060006107e2565b816001811461249657600281146124a0576124bc565b60019150506107e2565b60ff8411156124b1576124b16123bb565b50506001821b6107e2565b5060208310610133831016604e8410600b84101617156124df575081810a6107e2565b6124e98383612403565b807fffffffffffffffffffffffffffffffffffffffffffffffffffffffffffffffff0482111561251b5761251b6123bb565b029392505050565b6000610ac760ff841683612464565b80820281158282048414176107e2576107e26123bb565b60008261257f577f4e487b7100000000000000000000000000000000000000000000000000000000600052601260045260246000fd5b500490565b818103818111156107e2576107e26123bb565b808201808211156107e2576107e26123bb565b60007fffffffffffffffffffffffffffffffffffffffffffffffffffffffffffffffff82036125db576125db6123bb565b5060010190565b7f4e487b7100000000000000000000000000000000000000000000000000000000600052603260045260246000fd5b7f4e487b7100000000000000000000000000000000000000000000000000000000600052603160045260246000fdfea2646970667358221220ebe87ff7fae52fe4a4316beb6b8334820a90bb888e2094ccfae606b402db718264736f6c63430008110033",
    "linkReferences": {}
  },
  "methodIdentifiers": {
    "LIQUIDATION_REWARD()": "ad0d7594",
    "MAX_VAULTS()": "b6eaea17",
    "MIN_COLLATERIZATION_RATIO()": "35f2faf0",
    "add(uint256,address)": "2b8bbbe8",
    "burnDyad(uint256,uint256)": "16ae57a3",
    "collatRatio(uint256)": "9c110fe1",
    "dNft()": "0f5eea91",
    "deposit(uint256,address,uint256)": "bc157ac1",
    "dyad()": "add95a51",
    "getTotalUsdValue(uint256)": "d4687b69",
    "getVaults(uint256)": "468d16d0",
    "hasVault(uint256,address)": "dd7f27a4",
    "liquidate(uint256,uint256)": "d296d1f1",
    "mintDyad(uint256,uint256,address)": "ccf2e886",
    "redeemDyad(uint256,address,uint256,address)": "9f0784ba",
    "remove(uint256,address)": "9dfa4e94",
    "vaultLicenser()": "13661699",
    "withdraw(uint256,address,uint256,address)": "5f0f48bd"
  },
  "id": 41
}